{
  "_format": "hh-sol-artifact-1",
  "contractName": "BRT",
  "sourceName": "contracts/BRTToken.sol",
  "abi": [
    {
      "inputs": [
        {
          "internalType": "string",
          "name": "_name",
          "type": "string"
        },
        {
          "internalType": "string",
          "name": "_symbol",
          "type": "string"
        }
      ],
      "stateMutability": "nonpayable",
      "type": "constructor"
    },
    {
      "anonymous": false,
      "inputs": [
        {
          "indexed": true,
          "internalType": "address",
          "name": "owner",
          "type": "address"
        },
        {
          "indexed": true,
          "internalType": "address",
          "name": "spender",
          "type": "address"
        },
        {
          "indexed": false,
          "internalType": "uint256",
          "name": "value",
          "type": "uint256"
        }
      ],
      "name": "Approval",
      "type": "event"
    },
    {
      "anonymous": false,
      "inputs": [
        {
          "indexed": true,
          "internalType": "address",
          "name": "from",
          "type": "address"
        },
        {
          "indexed": true,
          "internalType": "address",
          "name": "to",
          "type": "address"
        },
        {
          "indexed": false,
          "internalType": "uint256",
          "name": "value",
          "type": "uint256"
        }
      ],
      "name": "Transfer",
      "type": "event"
    },
    {
      "inputs": [
        {
          "internalType": "address",
          "name": "",
          "type": "address"
        }
      ],
      "name": "_balances",
      "outputs": [
        {
          "internalType": "uint256",
          "name": "",
          "type": "uint256"
        }
      ],
      "stateMutability": "view",
      "type": "function"
    },
    {
      "inputs": [
        {
          "internalType": "address",
          "name": "owner",
          "type": "address"
        },
        {
          "internalType": "address",
          "name": "spender",
          "type": "address"
        }
      ],
      "name": "allowance",
      "outputs": [
        {
          "internalType": "uint256",
          "name": "",
          "type": "uint256"
        }
      ],
      "stateMutability": "view",
      "type": "function"
    },
    {
      "inputs": [
        {
          "internalType": "address",
          "name": "spender",
          "type": "address"
        },
        {
          "internalType": "uint256",
          "name": "amount",
          "type": "uint256"
        }
      ],
      "name": "approve",
      "outputs": [
        {
          "internalType": "bool",
          "name": "",
          "type": "bool"
        }
      ],
      "stateMutability": "nonpayable",
      "type": "function"
    },
    {
      "inputs": [
        {
          "internalType": "address",
          "name": "account",
          "type": "address"
        }
      ],
      "name": "balanceOf",
      "outputs": [
        {
          "internalType": "uint256",
          "name": "",
          "type": "uint256"
        }
      ],
      "stateMutability": "view",
      "type": "function"
    },
    {
      "inputs": [],
      "name": "decimals",
      "outputs": [
        {
          "internalType": "uint8",
          "name": "",
          "type": "uint8"
        }
      ],
      "stateMutability": "view",
      "type": "function"
    },
    {
      "inputs": [
        {
          "internalType": "address",
          "name": "spender",
          "type": "address"
        },
        {
          "internalType": "uint256",
          "name": "subtractedValue",
          "type": "uint256"
        }
      ],
      "name": "decreaseAllowance",
      "outputs": [
        {
          "internalType": "bool",
          "name": "",
          "type": "bool"
        }
      ],
      "stateMutability": "nonpayable",
      "type": "function"
    },
    {
      "inputs": [
        {
          "internalType": "address",
          "name": "spender",
          "type": "address"
        },
        {
          "internalType": "uint256",
          "name": "addedValue",
          "type": "uint256"
        }
      ],
      "name": "increaseAllowance",
      "outputs": [
        {
          "internalType": "bool",
          "name": "",
          "type": "bool"
        }
      ],
      "stateMutability": "nonpayable",
      "type": "function"
    },
    {
      "inputs": [],
      "name": "name",
      "outputs": [
        {
          "internalType": "string",
          "name": "",
          "type": "string"
        }
      ],
      "stateMutability": "view",
      "type": "function"
    },
    {
      "inputs": [],
      "name": "symbol",
      "outputs": [
        {
          "internalType": "string",
          "name": "",
          "type": "string"
        }
      ],
      "stateMutability": "view",
      "type": "function"
    },
    {
      "inputs": [],
      "name": "totalSupply",
      "outputs": [
        {
          "internalType": "uint256",
          "name": "",
          "type": "uint256"
        }
      ],
      "stateMutability": "view",
      "type": "function"
    },
    {
      "inputs": [
        {
          "internalType": "address",
          "name": "to",
          "type": "address"
        },
        {
          "internalType": "uint256",
          "name": "amount",
          "type": "uint256"
        }
      ],
      "name": "transfer",
      "outputs": [
        {
          "internalType": "bool",
          "name": "",
          "type": "bool"
        }
      ],
      "stateMutability": "nonpayable",
      "type": "function"
    },
    {
      "inputs": [
        {
          "internalType": "address",
          "name": "from",
          "type": "address"
        },
        {
          "internalType": "address",
          "name": "to",
          "type": "address"
        },
        {
          "internalType": "uint256",
          "name": "amount",
          "type": "uint256"
        }
      ],
      "name": "transferFrom",
      "outputs": [
        {
          "internalType": "bool",
          "name": "",
          "type": "bool"
        }
      ],
      "stateMutability": "nonpayable",
      "type": "function"
    }
  ],
  "bytecode": "0x60806040523480156200001157600080fd5b50604051620019fb380380620019fb833981810160405281019062000037919062000335565b818181600390805190602001906200005192919062000213565b5080600490805190602001906200006a92919062000213565b505050620000883368056bc75e2d631000006200009060201b60201c565b50506200065f565b600073ffffffffffffffffffffffffffffffffffffffff168273ffffffffffffffffffffffffffffffffffffffff16141562000103576040517f08c379a0000000000000000000000000000000000000000000000000000000008152600401620000fa90620003e0565b60405180910390fd5b62000117600083836200020960201b60201c565b80600260008282546200012b91906200048f565b92505081905550806000808473ffffffffffffffffffffffffffffffffffffffff1673ffffffffffffffffffffffffffffffffffffffff16815260200190815260200160002060008282546200018291906200048f565b925050819055508173ffffffffffffffffffffffffffffffffffffffff16600073ffffffffffffffffffffffffffffffffffffffff167fddf252ad1be2c89b69c2b068fc378daa952ba7f163c4a11628f55a4df523b3ef83604051620001e9919062000402565b60405180910390a362000205600083836200020e60201b60201c565b5050565b505050565b505050565b82805462000221906200052c565b90600052602060002090601f01602090048101928262000245576000855562000291565b82601f106200026057805160ff191683800117855562000291565b8280016001018555821562000291579182015b828111156200029057825182559160200191906001019062000273565b5b509050620002a09190620002a4565b5090565b5b80821115620002bf576000816000905550600101620002a5565b5090565b6000620002da620002d48462000448565b6200041f565b905082815260208101848484011115620002f357600080fd5b62000300848285620004f6565b509392505050565b600082601f8301126200031a57600080fd5b81516200032c848260208601620002c3565b91505092915050565b600080604083850312156200034957600080fd5b600083015167ffffffffffffffff8111156200036457600080fd5b620003728582860162000308565b925050602083015167ffffffffffffffff8111156200039057600080fd5b6200039e8582860162000308565b9150509250929050565b6000620003b7601f836200047e565b9150620003c48262000636565b602082019050919050565b620003da81620004ec565b82525050565b60006020820190508181036000830152620003fb81620003a8565b9050919050565b6000602082019050620004196000830184620003cf565b92915050565b60006200042b6200043e565b905062000439828262000562565b919050565b6000604051905090565b600067ffffffffffffffff821115620004665762000465620005f6565b5b620004718262000625565b9050602081019050919050565b600082825260208201905092915050565b60006200049c82620004ec565b9150620004a983620004ec565b9250827fffffffffffffffffffffffffffffffffffffffffffffffffffffffffffffffff03821115620004e157620004e062000598565b5b828201905092915050565b6000819050919050565b60005b8381101562000516578082015181840152602081019050620004f9565b8381111562000526576000848401525b50505050565b600060028204905060018216806200054557607f821691505b602082108114156200055c576200055b620005c7565b5b50919050565b6200056d8262000625565b810181811067ffffffffffffffff821117156200058f576200058e620005f6565b5b80604052505050565b7f4e487b7100000000000000000000000000000000000000000000000000000000600052601160045260246000fd5b7f4e487b7100000000000000000000000000000000000000000000000000000000600052602260045260246000fd5b7f4e487b7100000000000000000000000000000000000000000000000000000000600052604160045260246000fd5b6000601f19601f8301169050919050565b7f45524332303a206d696e7420746f20746865207a65726f206164647265737300600082015250565b61138c806200066f6000396000f3fe608060405234801561001057600080fd5b50600436106100b45760003560e01c80636ebcf607116100715780636ebcf607146101a357806370a08231146101d357806395d89b4114610203578063a457c2d714610221578063a9059cbb14610251578063dd62ed3e14610281576100b4565b806306fdde03146100b9578063095ea7b3146100d757806318160ddd1461010757806323b872dd14610125578063313ce567146101555780633950935114610173575b600080fd5b6100c16102b1565b6040516100ce9190610e52565b60405180910390f35b6100f160048036038101906100ec9190610ca0565b610343565b6040516100fe9190610e37565b60405180910390f35b61010f610366565b60405161011c9190610f54565b60405180910390f35b61013f600480360381019061013a9190610c51565b610370565b60405161014c9190610e37565b60405180910390f35b61015d61039f565b60405161016a9190610f6f565b60405180910390f35b61018d60048036038101906101889190610ca0565b6103a8565b60405161019a9190610e37565b60405180910390f35b6101bd60048036038101906101b89190610bec565b610452565b6040516101ca9190610f54565b60405180910390f35b6101ed60048036038101906101e89190610bec565b61046a565b6040516101fa9190610f54565b60405180910390f35b61020b6104b2565b6040516102189190610e52565b60405180910390f35b61023b60048036038101906102369190610ca0565b610544565b6040516102489190610e37565b60405180910390f35b61026b60048036038101906102669190610ca0565b61062e565b6040516102789190610e37565b60405180910390f35b61029b60048036038101906102969190610c15565b610651565b6040516102a89190610f54565b60405180910390f35b6060600380546102c090611084565b80601f01602080910402602001604051908101604052809291908181526020018280546102ec90611084565b80156103395780601f1061030e57610100808354040283529160200191610339565b820191906000526020600020905b81548152906001019060200180831161031c57829003601f168201915b5050505050905090565b60008061034e6106d8565b905061035b8185856106e0565b600191505092915050565b6000600254905090565b60008061037b6106d8565b90506103888582856108ab565b610393858585610937565b60019150509392505050565b60006012905090565b6000806103b36106d8565b9050610447818585600160008673ffffffffffffffffffffffffffffffffffffffff1673ffffffffffffffffffffffffffffffffffffffff16815260200190815260200160002060008973ffffffffffffffffffffffffffffffffffffffff1673ffffffffffffffffffffffffffffffffffffffff168152602001908152602001600020546104429190610fa6565b6106e0565b600191505092915050565b60006020528060005260406000206000915090505481565b60008060008373ffffffffffffffffffffffffffffffffffffffff1673ffffffffffffffffffffffffffffffffffffffff168152602001908152602001600020549050919050565b6060600480546104c190611084565b80601f01602080910402602001604051908101604052809291908181526020018280546104ed90611084565b801561053a5780601f1061050f5761010080835404028352916020019161053a565b820191906000526020600020905b81548152906001019060200180831161051d57829003601f168201915b5050505050905090565b60008061054f6106d8565b90506000600160008373ffffffffffffffffffffffffffffffffffffffff1673ffffffffffffffffffffffffffffffffffffffff16815260200190815260200160002060008673ffffffffffffffffffffffffffffffffffffffff1673ffffffffffffffffffffffffffffffffffffffff16815260200190815260200160002054905083811015610615576040517f08c379a000000000000000000000000000000000000000000000000000000000815260040161060c90610f34565b60405180910390fd5b61062282868684036106e0565b60019250505092915050565b6000806106396106d8565b9050610646818585610937565b600191505092915050565b6000600160008473ffffffffffffffffffffffffffffffffffffffff1673ffffffffffffffffffffffffffffffffffffffff16815260200190815260200160002060008373ffffffffffffffffffffffffffffffffffffffff1673ffffffffffffffffffffffffffffffffffffffff16815260200190815260200160002054905092915050565b600033905090565b600073ffffffffffffffffffffffffffffffffffffffff168373ffffffffffffffffffffffffffffffffffffffff161415610750576040517f08c379a000000000000000000000000000000000000000000000000000000000815260040161074790610f14565b60405180910390fd5b600073ffffffffffffffffffffffffffffffffffffffff168273ffffffffffffffffffffffffffffffffffffffff1614156107c0576040517f08c379a00000000000000000000000000000000000000000000000000000000081526004016107b790610e94565b60405180910390fd5b80600160008573ffffffffffffffffffffffffffffffffffffffff1673ffffffffffffffffffffffffffffffffffffffff16815260200190815260200160002060008473ffffffffffffffffffffffffffffffffffffffff1673ffffffffffffffffffffffffffffffffffffffff168152602001908152602001600020819055508173ffffffffffffffffffffffffffffffffffffffff168373ffffffffffffffffffffffffffffffffffffffff167f8c5be1e5ebec7d5bd14f71427d1e84f3dd0314c0f7b2291e5b200ac8c7c3b9258360405161089e9190610f54565b60405180910390a3505050565b60006108b78484610651565b90507fffffffffffffffffffffffffffffffffffffffffffffffffffffffffffffffff81146109315781811015610923576040517f08c379a000000000000000000000000000000000000000000000000000000000815260040161091a90610eb4565b60405180910390fd5b61093084848484036106e0565b5b50505050565b600073ffffffffffffffffffffffffffffffffffffffff168373ffffffffffffffffffffffffffffffffffffffff1614156109a7576040517f08c379a000000000000000000000000000000000000000000000000000000000815260040161099e90610ef4565b60405180910390fd5b600073ffffffffffffffffffffffffffffffffffffffff168273ffffffffffffffffffffffffffffffffffffffff161415610a17576040517f08c379a0000000000000000000000000000000000000000000000000000000008152600401610a0e90610e74565b60405180910390fd5b610a22838383610bb8565b60008060008573ffffffffffffffffffffffffffffffffffffffff1673ffffffffffffffffffffffffffffffffffffffff16815260200190815260200160002054905081811015610aa8576040517f08c379a0000000000000000000000000000000000000000000000000000000008152600401610a9f90610ed4565b60405180910390fd5b8181036000808673ffffffffffffffffffffffffffffffffffffffff1673ffffffffffffffffffffffffffffffffffffffff16815260200190815260200160002081905550816000808573ffffffffffffffffffffffffffffffffffffffff1673ffffffffffffffffffffffffffffffffffffffff1681526020019081526020016000206000828254610b3b9190610fa6565b925050819055508273ffffffffffffffffffffffffffffffffffffffff168473ffffffffffffffffffffffffffffffffffffffff167fddf252ad1be2c89b69c2b068fc378daa952ba7f163c4a11628f55a4df523b3ef84604051610b9f9190610f54565b60405180910390a3610bb2848484610bbd565b50505050565b505050565b505050565b600081359050610bd181611328565b92915050565b600081359050610be68161133f565b92915050565b600060208284031215610bfe57600080fd5b6000610c0c84828501610bc2565b91505092915050565b60008060408385031215610c2857600080fd5b6000610c3685828601610bc2565b9250506020610c4785828601610bc2565b9150509250929050565b600080600060608486031215610c6657600080fd5b6000610c7486828701610bc2565b9350506020610c8586828701610bc2565b9250506040610c9686828701610bd7565b9150509250925092565b60008060408385031215610cb357600080fd5b6000610cc185828601610bc2565b9250506020610cd285828601610bd7565b9150509250929050565b610ce58161100e565b82525050565b6000610cf682610f8a565b610d008185610f95565b9350610d10818560208601611051565b610d1981611114565b840191505092915050565b6000610d31602383610f95565b9150610d3c82611125565b604082019050919050565b6000610d54602283610f95565b9150610d5f82611174565b604082019050919050565b6000610d77601d83610f95565b9150610d82826111c3565b602082019050919050565b6000610d9a602683610f95565b9150610da5826111ec565b604082019050919050565b6000610dbd602583610f95565b9150610dc88261123b565b604082019050919050565b6000610de0602483610f95565b9150610deb8261128a565b604082019050919050565b6000610e03602583610f95565b9150610e0e826112d9565b604082019050919050565b610e228161103a565b82525050565b610e3181611044565b82525050565b6000602082019050610e4c6000830184610cdc565b92915050565b60006020820190508181036000830152610e6c8184610ceb565b905092915050565b60006020820190508181036000830152610e8d81610d24565b9050919050565b60006020820190508181036000830152610ead81610d47565b9050919050565b60006020820190508181036000830152610ecd81610d6a565b9050919050565b60006020820190508181036000830152610eed81610d8d565b9050919050565b60006020820190508181036000830152610f0d81610db0565b9050919050565b60006020820190508181036000830152610f2d81610dd3565b9050919050565b60006020820190508181036000830152610f4d81610df6565b9050919050565b6000602082019050610f696000830184610e19565b92915050565b6000602082019050610f846000830184610e28565b92915050565b600081519050919050565b600082825260208201905092915050565b6000610fb18261103a565b9150610fbc8361103a565b9250827fffffffffffffffffffffffffffffffffffffffffffffffffffffffffffffffff03821115610ff157610ff06110b6565b5b828201905092915050565b60006110078261101a565b9050919050565b60008115159050919050565b600073ffffffffffffffffffffffffffffffffffffffff82169050919050565b6000819050919050565b600060ff82169050919050565b60005b8381101561106f578082015181840152602081019050611054565b8381111561107e576000848401525b50505050565b6000600282049050600182168061109c57607f821691505b602082108114156110b0576110af6110e5565b5b50919050565b7f4e487b7100000000000000000000000000000000000000000000000000000000600052601160045260246000fd5b7f4e487b7100000000000000000000000000000000000000000000000000000000600052602260045260246000fd5b6000601f19601f8301169050919050565b7f45524332303a207472616e7366657220746f20746865207a65726f206164647260008201527f6573730000000000000000000000000000000000000000000000000000000000602082015250565b7f45524332303a20617070726f766520746f20746865207a65726f20616464726560008201527f7373000000000000000000000000000000000000000000000000000000000000602082015250565b7f45524332303a20696e73756666696369656e7420616c6c6f77616e6365000000600082015250565b7f45524332303a207472616e7366657220616d6f756e742065786365656473206260008201527f616c616e63650000000000000000000000000000000000000000000000000000602082015250565b7f45524332303a207472616e736665722066726f6d20746865207a65726f20616460008201527f6472657373000000000000000000000000000000000000000000000000000000602082015250565b7f45524332303a20617070726f76652066726f6d20746865207a65726f2061646460008201527f7265737300000000000000000000000000000000000000000000000000000000602082015250565b7f45524332303a2064656372656173656420616c6c6f77616e63652062656c6f7760008201527f207a65726f000000000000000000000000000000000000000000000000000000602082015250565b61133181610ffc565b811461133c57600080fd5b50565b6113488161103a565b811461135357600080fd5b5056fea2646970667358221220fefdd137c70e0caf80dad521d58d8289b74561bfc58fbab1fe797fad1bd50eb464736f6c63430008040033",
  "linkReferences": {},
  "deployedLinkReferences": {}
}