{
  "_format": "hh-sol-artifact-1",
  "contractName": "StakingContract",
  "sourceName": "contracts/StakingContract.sol",
  "abi": [
    {
      "inputs": [
        {
          "internalType": "address",
          "name": "_token",
          "type": "address"
        }
      ],
      "stateMutability": "nonpayable",
      "type": "constructor"
    },
    {
      "anonymous": false,
      "inputs": [
        {
          "indexed": false,
          "internalType": "address",
          "name": "owner",
          "type": "address"
        },
        {
          "indexed": false,
          "internalType": "uint256",
          "name": "time",
          "type": "uint256"
        },
        {
          "indexed": false,
          "internalType": "uint256",
          "name": "_amount",
          "type": "uint256"
        }
      ],
      "name": "Deposit",
      "type": "event"
    },
    {
      "anonymous": false,
      "inputs": [
        {
          "indexed": true,
          "internalType": "address",
          "name": "user",
          "type": "address"
        },
        {
          "indexed": true,
          "internalType": "uint256",
          "name": "pid",
          "type": "uint256"
        },
        {
          "indexed": false,
          "internalType": "uint256",
          "name": "amount",
          "type": "uint256"
        }
      ],
      "name": "Withdraw",
      "type": "event"
    },
    {
      "inputs": [],
      "name": "getContractBalance",
      "outputs": [
        {
          "internalType": "uint256",
          "name": "bal",
          "type": "uint256"
        }
      ],
      "stateMutability": "view",
      "type": "function"
    },
    {
      "inputs": [],
      "name": "getRecord",
      "outputs": [
        {
          "components": [
            {
              "internalType": "bool",
              "name": "success",
              "type": "bool"
            },
            {
              "internalType": "uint256",
              "name": "stake",
              "type": "uint256"
            },
            {
              "internalType": "uint256",
              "name": "reward",
              "type": "uint256"
            },
            {
              "internalType": "uint256",
              "name": "timeStart",
              "type": "uint256"
            },
            {
              "internalType": "uint256",
              "name": "timeDue",
              "type": "uint256"
            },
            {
              "internalType": "uint256",
              "name": "balance",
              "type": "uint256"
            }
          ],
          "internalType": "struct StakingContract.Staking",
          "name": "c",
          "type": "tuple"
        }
      ],
      "stateMutability": "view",
      "type": "function"
    },
    {
      "inputs": [
        {
          "internalType": "uint256",
          "name": "stake_",
          "type": "uint256"
        }
      ],
      "name": "stake",
      "outputs": [
        {
          "internalType": "bool",
          "name": "success",
          "type": "bool"
        }
      ],
      "stateMutability": "nonpayable",
      "type": "function"
    },
    {
      "inputs": [
        {
          "internalType": "address",
          "name": "",
          "type": "address"
        }
      ],
      "name": "stakings",
      "outputs": [
        {
          "internalType": "bool",
          "name": "success",
          "type": "bool"
        },
        {
          "internalType": "uint256",
          "name": "stake",
          "type": "uint256"
        },
        {
          "internalType": "uint256",
          "name": "reward",
          "type": "uint256"
        },
        {
          "internalType": "uint256",
          "name": "timeStart",
          "type": "uint256"
        },
        {
          "internalType": "uint256",
          "name": "timeDue",
          "type": "uint256"
        },
        {
          "internalType": "uint256",
          "name": "balance",
          "type": "uint256"
        }
      ],
      "stateMutability": "view",
      "type": "function"
    },
    {
      "inputs": [],
      "name": "withdrawAllInPool",
      "outputs": [
        {
          "internalType": "bool",
          "name": "success",
          "type": "bool"
        }
      ],
      "stateMutability": "nonpayable",
      "type": "function"
    },
    {
      "inputs": [
        {
          "internalType": "uint256",
          "name": "_amount",
          "type": "uint256"
        }
      ],
      "name": "withdrawRewardFromBalance",
      "outputs": [
        {
          "internalType": "bool",
          "name": "success_",
          "type": "bool"
        }
      ],
      "stateMutability": "nonpayable",
      "type": "function"
    }
  ],
  "bytecode": "0x60806040523480156200001157600080fd5b506040516200152538038062001525833981810160405281019062000037919062000095565b806000806101000a81548173ffffffffffffffffffffffffffffffffffffffff021916908373ffffffffffffffffffffffffffffffffffffffff160217905550506200010f565b6000815190506200008f81620000f5565b92915050565b600060208284031215620000a857600080fd5b6000620000b8848285016200007e565b91505092915050565b6000620000ce82620000d5565b9050919050565b600073ffffffffffffffffffffffffffffffffffffffff82169050919050565b6200010081620000c1565b81146200010c57600080fd5b50565b611406806200011f6000396000f3fe608060405234801561001057600080fd5b50600436106100625760003560e01c80632180a19a146100675780636f9fb98a14610085578063a694fc3a146100a3578063b45207ff146100d3578063dc6e13e114610103578063f18ad6fb14610138575b600080fd5b61006f610156565b60405161007c9190610fa0565b60405180910390f35b61008d610395565b60405161009a91906110d7565b60405180910390f35b6100bd60048036038101906100b89190610d27565b610446565b6040516100ca9190610fa0565b60405180910390f35b6100ed60048036038101906100e89190610d27565b610717565b6040516100fa9190610fa0565b60405180910390f35b61011d60048036038101906101189190610cd5565b61097e565b60405161012f96959493929190610fbb565b60405180910390f35b6101406109c7565b60405161014d91906110bc565b60405180910390f35b600080600260003373ffffffffffffffffffffffffffffffffffffffff1673ffffffffffffffffffffffffffffffffffffffff1681526020019081526020016000209050600115158160000160009054906101000a900460ff161515146101f2576040517f08c379a00000000000000000000000000000000000000000000000000000000081526004016101e99061105c565b60405180910390fd5b6101fa610a6b565b610239576040517f08c379a00000000000000000000000000000000000000000000000000000000081526004016102309061109c565b60405180910390fd5b60008054906101000a900473ffffffffffffffffffffffffffffffffffffffff1673ffffffffffffffffffffffffffffffffffffffff1663a9059cbb3383600501546040518363ffffffff1660e01b8152600401610298929190610f40565b602060405180830381600087803b1580156102b257600080fd5b505af11580156102c6573d6000803e3d6000fd5b505050506040513d601f19601f820116820180604052508101906102ea9190610cfe565b5060008160000160006101000a81548160ff021916908315150217905550600081600501819055506000816001018190555060008160020181905550600081600301819055506000816004018190555060019150423373ffffffffffffffffffffffffffffffffffffffff167ff279e6a1f5e320cca91135676d9cb6e44ca8a08c0b88342bcdb1144f6511b568836005015460405161038991906110d7565b60405180910390a35090565b60008060009054906101000a900473ffffffffffffffffffffffffffffffffffffffff1673ffffffffffffffffffffffffffffffffffffffff166370a08231306040518263ffffffff1660e01b81526004016103f19190610eee565b60206040518083038186803b15801561040957600080fd5b505afa15801561041d573d6000803e3d6000fd5b505050506040513d601f19601f820116820180604052508101906104419190610d50565b905090565b60008160008054906101000a900473ffffffffffffffffffffffffffffffffffffffff1673ffffffffffffffffffffffffffffffffffffffff166370a08231336040518263ffffffff1660e01b81526004016104a29190610eee565b60206040518083038186803b1580156104ba57600080fd5b505afa1580156104ce573d6000803e3d6000fd5b505050506040513d601f19601f820116820180604052508101906104f29190610d50565b1015610533576040517f08c379a000000000000000000000000000000000000000000000000000000000815260040161052a9061107c565b60405180910390fd5b60008054906101000a900473ffffffffffffffffffffffffffffffffffffffff1673ffffffffffffffffffffffffffffffffffffffff166323b872dd3330856040518463ffffffff1660e01b815260040161059093929190610f09565b602060405180830381600087803b1580156105aa57600080fd5b505af11580156105be573d6000803e3d6000fd5b505050506040513d601f19601f820116820180604052508101906105e29190610cfe565b5060006105ee83610b14565b90506000600260003373ffffffffffffffffffffffffffffffffffffffff1673ffffffffffffffffffffffffffffffffffffffff16815260200190815260200160002090508381600101546106439190611103565b8160010181905550428160030181905550610668603c42610ba590919063ffffffff16565b81600401819055508181600201546106809190611103565b81600201819055508060020154816001015461069c9190611103565b816005018190555060018160000160006101000a81548160ff0219169083151502179055508060000160009054906101000a900460ff1692507f90890809c654f11d6e72a28fa60149770a0d11ec6c92319d6ceb2bb0a4ea1a1533428660405161070893929190610f69565b60405180910390a15050919050565b600080600260003373ffffffffffffffffffffffffffffffffffffffff1673ffffffffffffffffffffffffffffffffffffffff168152602001908152602001600020905080600201548311156107a2576040517f08c379a00000000000000000000000000000000000000000000000000000000081526004016107999061103c565b60405180910390fd5b6107aa610a6b565b6107e9576040517f08c379a00000000000000000000000000000000000000000000000000000000081526004016107e09061109c565b60405180910390fd5b60008054906101000a900473ffffffffffffffffffffffffffffffffffffffff1673ffffffffffffffffffffffffffffffffffffffff1663a9059cbb33856040518363ffffffff1660e01b8152600401610844929190610f40565b602060405180830381600087803b15801561085e57600080fd5b505af1158015610872573d6000803e3d6000fd5b505050506040513d601f19601f820116820180604052508101906108969190610cfe565b508281600201546108a791906111e4565b81600201819055508281600501546108bf91906111e4565b81600501819055506108d48160050154610bbb565b8160020181905550806002015481600501546108f09190611103565b816005018190555060018160000160006101000a81548160ff0219169083151502179055508060000160009054906101000a900460ff169150423373ffffffffffffffffffffffffffffffffffffffff167ff279e6a1f5e320cca91135676d9cb6e44ca8a08c0b88342bcdb1144f6511b5688560405161097091906110d7565b60405180910390a350919050565b60026020528060005260406000206000915090508060000160009054906101000a900460ff16908060010154908060020154908060030154908060040154908060050154905086565b6109cf610c49565b600260003373ffffffffffffffffffffffffffffffffffffffff1673ffffffffffffffffffffffffffffffffffffffff1681526020019081526020016000206040518060c00160405290816000820160009054906101000a900460ff1615151515815260200160018201548152602001600282015481526020016003820154815260200160048201548152602001600582015481525050905090565b600080600260003373ffffffffffffffffffffffffffffffffffffffff1673ffffffffffffffffffffffffffffffffffffffff168152602001908152602001600020905080600401544210158015610ac857506000816001015414155b15610b0b5760648160040154610ade9190611103565b4210158015610af257506000816005015414155b15610b01576001915050610b11565b6001915050610b11565b60009150505b90565b6000808211610b58576040517f08c379a0000000000000000000000000000000000000000000000000000000008152600401610b4f9061101c565b60405180910390fd5b6000610b816064610b73600a86610c1d90919063ffffffff16565b610c3390919063ffffffff16565b90506000610b99601e83610c3390919063ffffffff16565b90508092505050919050565b60008183610bb39190611103565b905092915050565b600080600260003373ffffffffffffffffffffffffffffffffffffffff1673ffffffffffffffffffffffffffffffffffffffff1681526020019081526020016000209050806005015492506000610c1184610b14565b90508092505050919050565b60008183610c2b919061118a565b905092915050565b60008183610c419190611159565b905092915050565b6040518060c0016040528060001515815260200160008152602001600081526020016000815260200160008152602001600081525090565b600081359050610c908161138b565b92915050565b600081519050610ca5816113a2565b92915050565b600081359050610cba816113b9565b92915050565b600081519050610ccf816113b9565b92915050565b600060208284031215610ce757600080fd5b6000610cf584828501610c81565b91505092915050565b600060208284031215610d1057600080fd5b6000610d1e84828501610c96565b91505092915050565b600060208284031215610d3957600080fd5b6000610d4784828501610cab565b91505092915050565b600060208284031215610d6257600080fd5b6000610d7084828501610cc0565b91505092915050565b610d8281611218565b82525050565b610d918161122a565b82525050565b610da08161122a565b82525050565b6000610db36015836110f2565b9150610dbe826112be565b602082019050919050565b6000610dd66016836110f2565b9150610de1826112e7565b602082019050919050565b6000610df9600d836110f2565b9150610e0482611310565b602082019050919050565b6000610e1c6012836110f2565b9150610e2782611339565b602082019050919050565b6000610e3f6015836110f2565b9150610e4a82611362565b602082019050919050565b60c082016000820151610e6b6000850182610d88565b506020820151610e7e6020850182610ed0565b506040820151610e916040850182610ed0565b506060820151610ea46060850182610ed0565b506080820151610eb76080850182610ed0565b5060a0820151610eca60a0850182610ed0565b50505050565b610ed981611256565b82525050565b610ee881611256565b82525050565b6000602082019050610f036000830184610d79565b92915050565b6000606082019050610f1e6000830186610d79565b610f2b6020830185610d79565b610f386040830184610edf565b949350505050565b6000604082019050610f556000830185610d79565b610f626020830184610edf565b9392505050565b6000606082019050610f7e6000830186610d79565b610f8b6020830185610edf565b610f986040830184610edf565b949350505050565b6000602082019050610fb56000830184610d97565b92915050565b600060c082019050610fd06000830189610d97565b610fdd6020830188610edf565b610fea6040830187610edf565b610ff76060830186610edf565b6110046080830185610edf565b61101160a0830184610edf565b979650505050505050565b6000602082019050818103600083015261103581610da6565b9050919050565b6000602082019050818103600083015261105581610dc9565b9050919050565b6000602082019050818103600083015261107581610dec565b9050919050565b6000602082019050818103600083015261109581610e0f565b9050919050565b600060208201905081810360008301526110b581610e32565b9050919050565b600060c0820190506110d16000830184610e55565b92915050565b60006020820190506110ec6000830184610edf565b92915050565b600082825260208201905092915050565b600061110e82611256565b915061111983611256565b9250827fffffffffffffffffffffffffffffffffffffffffffffffffffffffffffffffff0382111561114e5761114d611260565b5b828201905092915050565b600061116482611256565b915061116f83611256565b92508261117f5761117e61128f565b5b828204905092915050565b600061119582611256565b91506111a083611256565b9250817fffffffffffffffffffffffffffffffffffffffffffffffffffffffffffffffff04831182151516156111d9576111d8611260565b5b828202905092915050565b60006111ef82611256565b91506111fa83611256565b92508282101561120d5761120c611260565b5b828203905092915050565b600061122382611236565b9050919050565b60008115159050919050565b600073ffffffffffffffffffffffffffffffffffffffff82169050919050565b6000819050919050565b7f4e487b7100000000000000000000000000000000000000000000000000000000600052601160045260246000fd5b7f4e487b7100000000000000000000000000000000000000000000000000000000600052601260045260246000fd5b7f496e76616c6964207374616b65207061737365642e0000000000000000000000600082015250565b7f416d6f756e742065786365656473207265776172642e00000000000000000000600082015250565b7f4e6f742061207374616b65722e00000000000000000000000000000000000000600082015250565b7f496e73756666696369656e742066756e64730000000000000000000000000000600082015250565b7f4e6f7420757020746f2076616c696420646174652e0000000000000000000000600082015250565b61139481611218565b811461139f57600080fd5b50565b6113ab8161122a565b81146113b657600080fd5b50565b6113c281611256565b81146113cd57600080fd5b5056fea2646970667358221220da878c688ac6b905425abb3ee78510bd929e1df998fc8beff8d8714cb99e02cb64736f6c63430008040033",
  "linkReferences": {},
  "deployedLinkReferences": {}
}