{
  "_format": "hh-sol-artifact-1",
  "contractName": "StakingContract",
  "sourceName": "contracts/StakingContract.sol",
  "abi": [
    {
      "inputs": [
        {
          "internalType": "address",
          "name": "_token",
          "type": "address"
        }
      ],
      "stateMutability": "nonpayable",
      "type": "constructor"
    },
    {
      "anonymous": false,
      "inputs": [
        {
          "indexed": false,
          "internalType": "address",
          "name": "owner",
          "type": "address"
        },
        {
          "indexed": false,
          "internalType": "uint256",
          "name": "time",
          "type": "uint256"
        },
        {
          "indexed": false,
          "internalType": "uint256",
          "name": "_amount",
          "type": "uint256"
        }
      ],
      "name": "Deposit",
      "type": "event"
    },
    {
      "anonymous": false,
      "inputs": [
        {
          "indexed": true,
          "internalType": "address",
          "name": "user",
          "type": "address"
        },
        {
          "indexed": true,
          "internalType": "uint256",
          "name": "pid",
          "type": "uint256"
        },
        {
          "indexed": false,
          "internalType": "uint256",
          "name": "amount",
          "type": "uint256"
        }
      ],
      "name": "Withdraw",
      "type": "event"
    },
    {
      "inputs": [],
      "name": "allowAutoUpdateStake",
      "outputs": [],
      "stateMutability": "nonpayable",
      "type": "function"
    },
    {
      "inputs": [],
      "name": "getContractBalance",
      "outputs": [
        {
          "internalType": "uint256",
          "name": "bal",
          "type": "uint256"
        }
      ],
      "stateMutability": "view",
      "type": "function"
    },
    {
      "inputs": [
        {
          "internalType": "address",
          "name": "_address",
          "type": "address"
        }
      ],
      "name": "getRecord",
      "outputs": [
        {
          "components": [
            {
              "internalType": "bool",
              "name": "success",
              "type": "bool"
            },
            {
              "internalType": "bool",
              "name": "updateStake",
              "type": "bool"
            },
            {
              "internalType": "uint256",
              "name": "stake",
              "type": "uint256"
            },
            {
              "internalType": "uint256",
              "name": "reward",
              "type": "uint256"
            },
            {
              "internalType": "uint256",
              "name": "timeStart",
              "type": "uint256"
            },
            {
              "internalType": "uint256",
              "name": "timeDue",
              "type": "uint256"
            }
          ],
          "internalType": "struct StakingContract.Staking",
          "name": "c",
          "type": "tuple"
        }
      ],
      "stateMutability": "view",
      "type": "function"
    },
    {
      "inputs": [
        {
          "internalType": "uint256",
          "name": "stake_",
          "type": "uint256"
        }
      ],
      "name": "stake",
      "outputs": [
        {
          "internalType": "bool",
          "name": "success",
          "type": "bool"
        }
      ],
      "stateMutability": "nonpayable",
      "type": "function"
    },
    {
      "inputs": [
        {
          "internalType": "address",
          "name": "",
          "type": "address"
        }
      ],
      "name": "stakings",
      "outputs": [
        {
          "internalType": "bool",
          "name": "success",
          "type": "bool"
        },
        {
          "internalType": "bool",
          "name": "updateStake",
          "type": "bool"
        },
        {
          "internalType": "uint256",
          "name": "stake",
          "type": "uint256"
        },
        {
          "internalType": "uint256",
          "name": "reward",
          "type": "uint256"
        },
        {
          "internalType": "uint256",
          "name": "timeStart",
          "type": "uint256"
        },
        {
          "internalType": "uint256",
          "name": "timeDue",
          "type": "uint256"
        }
      ],
      "stateMutability": "view",
      "type": "function"
    },
    {
      "inputs": [],
      "name": "withdrawAllInPool",
      "outputs": [],
      "stateMutability": "nonpayable",
      "type": "function"
    },
    {
      "inputs": [
        {
          "internalType": "uint256",
          "name": "_amount",
          "type": "uint256"
        }
      ],
      "name": "withdrawRewardFromBalance",
      "outputs": [],
      "stateMutability": "nonpayable",
      "type": "function"
    }
  ],
  "bytecode": "0x60806040523480156200001157600080fd5b50604051620016d1380380620016d1833981810160405281019062000037919062000095565b806000806101000a81548173ffffffffffffffffffffffffffffffffffffffff021916908373ffffffffffffffffffffffffffffffffffffffff160217905550506200010f565b6000815190506200008f81620000f5565b92915050565b600060208284031215620000a857600080fd5b6000620000b8848285016200007e565b91505092915050565b6000620000ce82620000d5565b9050919050565b600073ffffffffffffffffffffffffffffffffffffffff82169050919050565b6200010081620000c1565b81146200010c57600080fd5b50565b6115b2806200011f6000396000f3fe608060405234801561001057600080fd5b506004361061007d5760003560e01c80636f9fb98a1161005b5780636f9fb98a146100c6578063a694fc3a146100e4578063b45207ff14610114578063dc6e13e1146101305761007d565b80632180a19a14610082578063579327d51461008c578063617fba0414610096575b600080fd5b61008a610165565b005b6100946103fd565b005b6100b060048036038101906100ab9190610e15565b610471565b6040516100bd919061123f565b60405180910390f35b6100ce610528565b6040516100db919061125a565b60405180910390f35b6100fe60048036038101906100f99190610e67565b6105d9565b60405161010b9190611103565b60405180910390f35b61012e60048036038101906101299190610e67565b61089e565b005b61014a60048036038101906101459190610e15565b610b04565b60405161015c9695949392919061111e565b60405180910390f35b600061016f610b5a565b9150506000600260003373ffffffffffffffffffffffffffffffffffffffff1673ffffffffffffffffffffffffffffffffffffffff1681526020019081526020016000209050806004015442116101fb576040517f08c379a00000000000000000000000000000000000000000000000000000000081526004016101f29061121f565b60405180910390fd5b600115158160000160009054906101000a900460ff16151514610253576040517f08c379a000000000000000000000000000000000000000000000000000000000815260040161024a906111bf565b60405180910390fd5b81610293576040517f08c379a000000000000000000000000000000000000000000000000000000000815260040161028a906111ff565b60405180910390fd5b806002015481600101546102a79190611286565b816001018190555060008054906101000a900473ffffffffffffffffffffffffffffffffffffffff1673ffffffffffffffffffffffffffffffffffffffff1663a9059cbb3383600101546040518363ffffffff1660e01b815260040161030e9291906110a3565b602060405180830381600087803b15801561032857600080fd5b505af115801561033c573d6000803e3d6000fd5b505050506040513d601f19601f820116820180604052508101906103609190610e3e565b5060008160000160006101000a81548160ff02191690831515021790555060008160010181905550600081600201819055506000816003018190555060008160040181905550423373ffffffffffffffffffffffffffffffffffffffff167ff279e6a1f5e320cca91135676d9cb6e44ca8a08c0b88342bcdb1144f6511b56883600101546040516103f1919061125a565b60405180910390a35050565b6000600260003373ffffffffffffffffffffffffffffffffffffffff1673ffffffffffffffffffffffffffffffffffffffff16815260200190815260200160002090508060000160019054906101000a900460ff16158160000160016101000a81548160ff02191690831515021790555050565b610479610d87565b600260008373ffffffffffffffffffffffffffffffffffffffff1673ffffffffffffffffffffffffffffffffffffffff1681526020019081526020016000206040518060c00160405290816000820160009054906101000a900460ff161515151581526020016000820160019054906101000a900460ff161515151581526020016001820154815260200160028201548152602001600382015481526020016004820154815250509050919050565b60008060009054906101000a900473ffffffffffffffffffffffffffffffffffffffff1673ffffffffffffffffffffffffffffffffffffffff166370a08231306040518263ffffffff1660e01b81526004016105849190611051565b60206040518083038186803b15801561059c57600080fd5b505afa1580156105b0573d6000803e3d6000fd5b505050506040513d601f19601f820116820180604052508101906105d49190610e90565b905090565b60008160008054906101000a900473ffffffffffffffffffffffffffffffffffffffff1673ffffffffffffffffffffffffffffffffffffffff166370a08231336040518263ffffffff1660e01b81526004016106359190611051565b60206040518083038186803b15801561064d57600080fd5b505afa158015610661573d6000803e3d6000fd5b505050506040513d601f19601f820116820180604052508101906106859190610e90565b10156106c6576040517f08c379a00000000000000000000000000000000000000000000000000000000081526004016106bd906111df565b60405180910390fd5b60008054906101000a900473ffffffffffffffffffffffffffffffffffffffff1673ffffffffffffffffffffffffffffffffffffffff166323b872dd3330856040518463ffffffff1660e01b81526004016107239392919061106c565b602060405180830381600087803b15801561073d57600080fd5b505af1158015610751573d6000803e3d6000fd5b505050506040513d601f19601f820116820180604052508101906107759190610e3e565b50600061078183610bea565b90506000600260003373ffffffffffffffffffffffffffffffffffffffff1673ffffffffffffffffffffffffffffffffffffffff16815260200190815260200160002090506107dd848260010154610ca690919063ffffffff16565b81600101819055504281600301819055506108046203f48042610ca690919063ffffffff16565b8160040181905550610823828260020154610ca690919063ffffffff16565b816002018190555060018160000160006101000a81548160ff0219169083151502179055508060000160009054906101000a900460ff1692507f90890809c654f11d6e72a28fa60149770a0d11ec6c92319d6ceb2bb0a4ea1a1533428660405161088f939291906110cc565b60405180910390a15050919050565b6000806108a9610b5a565b915091506000600260003373ffffffffffffffffffffffffffffffffffffffff1673ffffffffffffffffffffffffffffffffffffffff1681526020019081526020016000209050828160020154610900919061130d565b8160020181905550806002015484111561094f576040517f08c379a00000000000000000000000000000000000000000000000000000000081526004016109469061119f565b60405180910390fd5b8161098f576040517f08c379a0000000000000000000000000000000000000000000000000000000008152600401610986906111ff565b60405180910390fd5b6109a6848260020154610cbc90919063ffffffff16565b81600201819055506109c5848260010154610cbc90919063ffffffff16565b8160010181905550600115158160000160019054906101000a900460ff1615151415610a01576109f88160010154610cd2565b81600201819055505b60008054906101000a900473ffffffffffffffffffffffffffffffffffffffff1673ffffffffffffffffffffffffffffffffffffffff1663a9059cbb33866040518363ffffffff1660e01b8152600401610a5c9291906110a3565b602060405180830381600087803b158015610a7657600080fd5b505af1158015610a8a573d6000803e3d6000fd5b505050506040513d601f19601f82011682018060405250810190610aae9190610e3e565b50423373ffffffffffffffffffffffffffffffffffffffff167ff279e6a1f5e320cca91135676d9cb6e44ca8a08c0b88342bcdb1144f6511b56886604051610af6919061125a565b60405180910390a350505050565b60026020528060005260406000206000915090508060000160009054906101000a900460ff16908060000160019054906101000a900460ff16908060010154908060020154908060030154908060040154905086565b6000806000600260003373ffffffffffffffffffffffffffffffffffffffff1673ffffffffffffffffffffffffffffffffffffffff1681526020019081526020016000209050806003015442610bb09190611367565b925080600401544210158015610bcb57506000816001015414155b15610bdd578260019250925050610be6565b82600092509250505b9091565b6000808211610c2e576040517f08c379a0000000000000000000000000000000000000000000000000000000008152600401610c259061117f565b60405180910390fd5b670de0b6b3a764000082610c42919061130d565b91506000610c6d6064610c5f600a86610d5b90919063ffffffff16565b610d7190919063ffffffff16565b90506000610c85601e83610d7190919063ffffffff16565b9050610c9d6201518082610d7190919063ffffffff16565b92505050919050565b60008183610cb49190611286565b905092915050565b60008183610cca9190611367565b905092915050565b600080600260003373ffffffffffffffffffffffffffffffffffffffff1673ffffffffffffffffffffffffffffffffffffffff168152602001908152602001600020905080600101549250428160030181905550610d3c6203f48042610ca690919063ffffffff16565b81600401819055506000610d4f84610bea565b90508092505050919050565b60008183610d69919061130d565b905092915050565b60008183610d7f91906112dc565b905092915050565b6040518060c00160405280600015158152602001600015158152602001600081526020016000815260200160008152602001600081525090565b600081359050610dd081611537565b92915050565b600081519050610de58161154e565b92915050565b600081359050610dfa81611565565b92915050565b600081519050610e0f81611565565b92915050565b600060208284031215610e2757600080fd5b6000610e3584828501610dc1565b91505092915050565b600060208284031215610e5057600080fd5b6000610e5e84828501610dd6565b91505092915050565b600060208284031215610e7957600080fd5b6000610e8784828501610deb565b91505092915050565b600060208284031215610ea257600080fd5b6000610eb084828501610e00565b91505092915050565b610ec28161139b565b82525050565b610ed1816113ad565b82525050565b610ee0816113ad565b82525050565b6000610ef3601583611275565b9150610efe82611441565b602082019050919050565b6000610f16601683611275565b9150610f218261146a565b602082019050919050565b6000610f39600d83611275565b9150610f4482611493565b602082019050919050565b6000610f5c601283611275565b9150610f67826114bc565b602082019050919050565b6000610f7f601583611275565b9150610f8a826114e5565b602082019050919050565b6000610fa2601183611275565b9150610fad8261150e565b602082019050919050565b60c082016000820151610fce6000850182610ec8565b506020820151610fe16020850182610ec8565b506040820151610ff46040850182611033565b5060608201516110076060850182611033565b50608082015161101a6080850182611033565b5060a082015161102d60a0850182611033565b50505050565b61103c816113d9565b82525050565b61104b816113d9565b82525050565b60006020820190506110666000830184610eb9565b92915050565b60006060820190506110816000830186610eb9565b61108e6020830185610eb9565b61109b6040830184611042565b949350505050565b60006040820190506110b86000830185610eb9565b6110c56020830184611042565b9392505050565b60006060820190506110e16000830186610eb9565b6110ee6020830185611042565b6110fb6040830184611042565b949350505050565b60006020820190506111186000830184610ed7565b92915050565b600060c0820190506111336000830189610ed7565b6111406020830188610ed7565b61114d6040830187611042565b61115a6060830186611042565b6111676080830185611042565b61117460a0830184611042565b979650505050505050565b6000602082019050818103600083015261119881610ee6565b9050919050565b600060208201905081810360008301526111b881610f09565b9050919050565b600060208201905081810360008301526111d881610f2c565b9050919050565b600060208201905081810360008301526111f881610f4f565b9050919050565b6000602082019050818103600083015261121881610f72565b9050919050565b6000602082019050818103600083015261123881610f95565b9050919050565b600060c0820190506112546000830184610fb8565b92915050565b600060208201905061126f6000830184611042565b92915050565b600082825260208201905092915050565b6000611291826113d9565b915061129c836113d9565b9250827fffffffffffffffffffffffffffffffffffffffffffffffffffffffffffffffff038211156112d1576112d06113e3565b5b828201905092915050565b60006112e7826113d9565b91506112f2836113d9565b92508261130257611301611412565b5b828204905092915050565b6000611318826113d9565b9150611323836113d9565b9250817fffffffffffffffffffffffffffffffffffffffffffffffffffffffffffffffff048311821515161561135c5761135b6113e3565b5b828202905092915050565b6000611372826113d9565b915061137d836113d9565b9250828210156113905761138f6113e3565b5b828203905092915050565b60006113a6826113b9565b9050919050565b60008115159050919050565b600073ffffffffffffffffffffffffffffffffffffffff82169050919050565b6000819050919050565b7f4e487b7100000000000000000000000000000000000000000000000000000000600052601160045260246000fd5b7f4e487b7100000000000000000000000000000000000000000000000000000000600052601260045260246000fd5b7f496e76616c6964207374616b65207061737365642e0000000000000000000000600082015250565b7f416d6f756e742065786365656473207265776172642e00000000000000000000600082015250565b7f4e6f742061207374616b65722e00000000000000000000000000000000000000600082015250565b7f496e73756666696369656e742066756e64730000000000000000000000000000600082015250565b7f4e6f7420757020746f2076616c696420646174652e0000000000000000000000600082015250565b7f4e6f7420757020746f203320646179732e000000000000000000000000000000600082015250565b6115408161139b565b811461154b57600080fd5b50565b611557816113ad565b811461156257600080fd5b50565b61156e816113d9565b811461157957600080fd5b5056fea264697066735822122027ac678587917d2bc0ed00cf1f7a8c3dc8311b1020e6c05a727c64ae2e9a867064736f6c63430008040033",
  "linkReferences": {},
  "deployedLinkReferences": {}
}