{
  "_format": "hh-sol-artifact-1",
  "contractName": "StakingContract",
  "sourceName": "contracts/StakingContract.sol",
  "abi": [
    {
      "inputs": [
        {
          "internalType": "address",
          "name": "_token",
          "type": "address"
        },
        {
          "internalType": "address",
          "name": "_apeNFT",
          "type": "address"
        }
      ],
      "stateMutability": "nonpayable",
      "type": "constructor"
    },
    {
      "anonymous": false,
      "inputs": [
        {
          "indexed": false,
          "internalType": "address",
          "name": "owner",
          "type": "address"
        },
        {
          "indexed": false,
          "internalType": "uint256",
          "name": "time",
          "type": "uint256"
        },
        {
          "indexed": false,
          "internalType": "uint256",
          "name": "_amount",
          "type": "uint256"
        }
      ],
      "name": "Deposit",
      "type": "event"
    },
    {
      "anonymous": false,
      "inputs": [
        {
          "indexed": true,
          "internalType": "address",
          "name": "user",
          "type": "address"
        },
        {
          "indexed": true,
          "internalType": "uint256",
          "name": "pid",
          "type": "uint256"
        },
        {
          "indexed": false,
          "internalType": "uint256",
          "name": "amount",
          "type": "uint256"
        }
      ],
      "name": "Withdraw",
      "type": "event"
    },
    {
      "inputs": [],
      "name": "getContractBalance",
      "outputs": [
        {
          "internalType": "uint256",
          "name": "bal",
          "type": "uint256"
        }
      ],
      "stateMutability": "view",
      "type": "function"
    },
    {
      "inputs": [
        {
          "internalType": "address",
          "name": "_address",
          "type": "address"
        }
      ],
      "name": "getRecord",
      "outputs": [
        {
          "components": [
            {
              "internalType": "bool",
              "name": "success",
              "type": "bool"
            },
            {
              "internalType": "uint256",
              "name": "stake",
              "type": "uint256"
            },
            {
              "internalType": "uint256",
              "name": "reward",
              "type": "uint256"
            },
            {
              "internalType": "uint256",
              "name": "timeStart",
              "type": "uint256"
            },
            {
              "internalType": "uint256",
              "name": "timeDue",
              "type": "uint256"
            },
            {
              "internalType": "uint256",
              "name": "balance",
              "type": "uint256"
            }
          ],
          "internalType": "struct StakingContract.Staking",
          "name": "c",
          "type": "tuple"
        }
      ],
      "stateMutability": "view",
      "type": "function"
    },
    {
      "inputs": [
        {
          "internalType": "uint256",
          "name": "stake_",
          "type": "uint256"
        }
      ],
      "name": "stake",
      "outputs": [
        {
          "internalType": "bool",
          "name": "success",
          "type": "bool"
        }
      ],
      "stateMutability": "nonpayable",
      "type": "function"
    },
    {
      "inputs": [
        {
          "internalType": "address",
          "name": "",
          "type": "address"
        }
      ],
      "name": "stakings",
      "outputs": [
        {
          "internalType": "bool",
          "name": "success",
          "type": "bool"
        },
        {
          "internalType": "uint256",
          "name": "stake",
          "type": "uint256"
        },
        {
          "internalType": "uint256",
          "name": "reward",
          "type": "uint256"
        },
        {
          "internalType": "uint256",
          "name": "timeStart",
          "type": "uint256"
        },
        {
          "internalType": "uint256",
          "name": "timeDue",
          "type": "uint256"
        },
        {
          "internalType": "uint256",
          "name": "balance",
          "type": "uint256"
        }
      ],
      "stateMutability": "view",
      "type": "function"
    },
    {
      "inputs": [],
      "name": "withdrawAllInPool",
      "outputs": [],
      "stateMutability": "nonpayable",
      "type": "function"
    },
    {
      "inputs": [
        {
          "internalType": "uint256",
          "name": "_amount",
          "type": "uint256"
        }
      ],
      "name": "withdrawRewardFromBalance",
      "outputs": [
        {
          "internalType": "bool",
          "name": "success_",
          "type": "bool"
        }
      ],
      "stateMutability": "nonpayable",
      "type": "function"
    }
  ],
  "bytecode": "0x60806040523480156200001157600080fd5b5060405162001713380380620017138339818101604052810190620000379190620000d7565b816000806101000a81548173ffffffffffffffffffffffffffffffffffffffff021916908373ffffffffffffffffffffffffffffffffffffffff16021790555080600160006101000a81548173ffffffffffffffffffffffffffffffffffffffff021916908373ffffffffffffffffffffffffffffffffffffffff160217905550505062000166565b600081519050620000d1816200014c565b92915050565b60008060408385031215620000eb57600080fd5b6000620000fb85828601620000c0565b92505060206200010e85828601620000c0565b9150509250929050565b600062000125826200012c565b9050919050565b600073ffffffffffffffffffffffffffffffffffffffff82169050919050565b620001578162000118565b81146200016357600080fd5b50565b61159d80620001766000396000f3fe608060405234801561001057600080fd5b50600436106100625760003560e01c80632180a19a14610067578063617fba04146100715780636f9fb98a146100a1578063a694fc3a146100bf578063b45207ff146100ef578063dc6e13e11461011f575b600080fd5b61006f610154565b005b61008b60048036038101906100869190610e00565b61038d565b604051610098919061122a565b60405180910390f35b6100a9610433565b6040516100b69190611245565b60405180910390f35b6100d960048036038101906100d49190610e52565b6104e4565b6040516100e691906110ee565b60405180910390f35b61010960048036038101906101049190610e52565b6108b9565b60405161011691906110ee565b60405180910390f35b61013960048036038101906101349190610e00565b610b35565b60405161014b96959493929190611109565b60405180910390f35b6000600260003373ffffffffffffffffffffffffffffffffffffffff1673ffffffffffffffffffffffffffffffffffffffff1681526020019081526020016000209050600115158160000160009054906101000a900460ff161515146101ef576040517f08c379a00000000000000000000000000000000000000000000000000000000081526004016101e6906111aa565b60405180910390fd5b6101f7610b7e565b610236576040517f08c379a000000000000000000000000000000000000000000000000000000000815260040161022d9061120a565b60405180910390fd5b60008054906101000a900473ffffffffffffffffffffffffffffffffffffffff1673ffffffffffffffffffffffffffffffffffffffff1663a9059cbb3383600501546040518363ffffffff1660e01b815260040161029592919061108e565b602060405180830381600087803b1580156102af57600080fd5b505af11580156102c3573d6000803e3d6000fd5b505050506040513d601f19601f820116820180604052508101906102e79190610e29565b5060008160000160006101000a81548160ff0219169083151502179055506000816005018190555060008160010181905550600081600201819055506000816003018190555060008160040181905550423373ffffffffffffffffffffffffffffffffffffffff167ff279e6a1f5e320cca91135676d9cb6e44ca8a08c0b88342bcdb1144f6511b56883600501546040516103829190611245565b60405180910390a350565b610395610d74565b600260008373ffffffffffffffffffffffffffffffffffffffff1673ffffffffffffffffffffffffffffffffffffffff1681526020019081526020016000206040518060c00160405290816000820160009054906101000a900460ff16151515158152602001600182015481526020016002820154815260200160038201548152602001600482015481526020016005820154815250509050919050565b60008060009054906101000a900473ffffffffffffffffffffffffffffffffffffffff1673ffffffffffffffffffffffffffffffffffffffff166370a08231306040518263ffffffff1660e01b815260040161048f919061103c565b60206040518083038186803b1580156104a757600080fd5b505afa1580156104bb573d6000803e3d6000fd5b505050506040513d601f19601f820116820180604052508101906104df9190610e7b565b905090565b600060018060009054906101000a900473ffffffffffffffffffffffffffffffffffffffff1673ffffffffffffffffffffffffffffffffffffffff166370a08231336040518263ffffffff1660e01b8152600401610542919061103c565b60206040518083038186803b15801561055a57600080fd5b505afa15801561056e573d6000803e3d6000fd5b505050506040513d601f19601f820116820180604052508101906105929190610e7b565b10156105d3576040517f08c379a00000000000000000000000000000000000000000000000000000000081526004016105ca906111ca565b60405180910390fd5b8160008054906101000a900473ffffffffffffffffffffffffffffffffffffffff1673ffffffffffffffffffffffffffffffffffffffff166370a08231336040518263ffffffff1660e01b815260040161062d919061103c565b60206040518083038186803b15801561064557600080fd5b505afa158015610659573d6000803e3d6000fd5b505050506040513d601f19601f8201168201806040525081019061067d9190610e7b565b10156106be576040517f08c379a00000000000000000000000000000000000000000000000000000000081526004016106b5906111ea565b60405180910390fd5b60008054906101000a900473ffffffffffffffffffffffffffffffffffffffff1673ffffffffffffffffffffffffffffffffffffffff166323b872dd3330856040518463ffffffff1660e01b815260040161071b93929190611057565b602060405180830381600087803b15801561073557600080fd5b505af1158015610749573d6000803e3d6000fd5b505050506040513d601f19601f8201168201806040525081019061076d9190610e29565b50600061077983610c29565b90506000600260003373ffffffffffffffffffffffffffffffffffffffff1673ffffffffffffffffffffffffffffffffffffffff16815260200190815260200160002090506107d5848260010154610cba90919063ffffffff16565b81600101819055504281600301819055506107fc6203f48042610cba90919063ffffffff16565b816004018190555061081b828260020154610cba90919063ffffffff16565b816002018190555061083e81600201548260010154610cba90919063ffffffff16565b816005018190555060018160000160006101000a81548160ff0219169083151502179055508060000160009054906101000a900460ff1692507f90890809c654f11d6e72a28fa60149770a0d11ec6c92319d6ceb2bb0a4ea1a153342866040516108aa939291906110b7565b60405180910390a15050919050565b600080600260003373ffffffffffffffffffffffffffffffffffffffff1673ffffffffffffffffffffffffffffffffffffffff16815260200190815260200160002090508060020154831115610944576040517f08c379a000000000000000000000000000000000000000000000000000000000815260040161093b9061118a565b60405180910390fd5b61094c610b7e565b61098b576040517f08c379a00000000000000000000000000000000000000000000000000000000081526004016109829061120a565b60405180910390fd5b60008054906101000a900473ffffffffffffffffffffffffffffffffffffffff1673ffffffffffffffffffffffffffffffffffffffff1663a9059cbb33856040518363ffffffff1660e01b81526004016109e692919061108e565b602060405180830381600087803b158015610a0057600080fd5b505af1158015610a14573d6000803e3d6000fd5b505050506040513d601f19601f82011682018060405250810190610a389190610e29565b50610a50838260020154610cd090919063ffffffff16565b8160020181905550610a6f838260050154610cd090919063ffffffff16565b8160050181905550610a848160050154610ce6565b8160020181905550610aa781600201548260050154610cba90919063ffffffff16565b816005018190555060018160000160006101000a81548160ff0219169083151502179055508060000160009054906101000a900460ff169150423373ffffffffffffffffffffffffffffffffffffffff167ff279e6a1f5e320cca91135676d9cb6e44ca8a08c0b88342bcdb1144f6511b56885604051610b279190611245565b60405180910390a350919050565b60026020528060005260406000206000915090508060000160009054906101000a900460ff16908060010154908060020154908060030154908060040154908060050154905086565b600080600260003373ffffffffffffffffffffffffffffffffffffffff1673ffffffffffffffffffffffffffffffffffffffff168152602001908152602001600020905080600401544210158015610bdb57506000816001015414155b15610c2057620151808160040154610bf39190611271565b4210158015610c0757506000816005015414155b15610c16576001915050610c26565b6001915050610c26565b60009150505b90565b6000808211610c6d576040517f08c379a0000000000000000000000000000000000000000000000000000000008152600401610c649061116a565b60405180910390fd5b6000610c966064610c88600a86610d4890919063ffffffff16565b610d5e90919063ffffffff16565b90506000610cae601e83610d5e90919063ffffffff16565b90508092505050919050565b60008183610cc89190611271565b905092915050565b60008183610cde9190611352565b905092915050565b600080600260003373ffffffffffffffffffffffffffffffffffffffff1673ffffffffffffffffffffffffffffffffffffffff1681526020019081526020016000209050806005015492506000610d3c84610c29565b90508092505050919050565b60008183610d5691906112f8565b905092915050565b60008183610d6c91906112c7565b905092915050565b6040518060c0016040528060001515815260200160008152602001600081526020016000815260200160008152602001600081525090565b600081359050610dbb81611522565b92915050565b600081519050610dd081611539565b92915050565b600081359050610de581611550565b92915050565b600081519050610dfa81611550565b92915050565b600060208284031215610e1257600080fd5b6000610e2084828501610dac565b91505092915050565b600060208284031215610e3b57600080fd5b6000610e4984828501610dc1565b91505092915050565b600060208284031215610e6457600080fd5b6000610e7284828501610dd6565b91505092915050565b600060208284031215610e8d57600080fd5b6000610e9b84828501610deb565b91505092915050565b610ead81611386565b82525050565b610ebc81611398565b82525050565b610ecb81611398565b82525050565b6000610ede601583611260565b9150610ee98261142c565b602082019050919050565b6000610f01601683611260565b9150610f0c82611455565b602082019050919050565b6000610f24600d83611260565b9150610f2f8261147e565b602082019050919050565b6000610f47600f83611260565b9150610f52826114a7565b602082019050919050565b6000610f6a601283611260565b9150610f75826114d0565b602082019050919050565b6000610f8d601583611260565b9150610f98826114f9565b602082019050919050565b60c082016000820151610fb96000850182610eb3565b506020820151610fcc602085018261101e565b506040820151610fdf604085018261101e565b506060820151610ff2606085018261101e565b506080820151611005608085018261101e565b5060a082015161101860a085018261101e565b50505050565b611027816113c4565b82525050565b611036816113c4565b82525050565b60006020820190506110516000830184610ea4565b92915050565b600060608201905061106c6000830186610ea4565b6110796020830185610ea4565b611086604083018461102d565b949350505050565b60006040820190506110a36000830185610ea4565b6110b0602083018461102d565b9392505050565b60006060820190506110cc6000830186610ea4565b6110d9602083018561102d565b6110e6604083018461102d565b949350505050565b60006020820190506111036000830184610ec2565b92915050565b600060c08201905061111e6000830189610ec2565b61112b602083018861102d565b611138604083018761102d565b611145606083018661102d565b611152608083018561102d565b61115f60a083018461102d565b979650505050505050565b6000602082019050818103600083015261118381610ed1565b9050919050565b600060208201905081810360008301526111a381610ef4565b9050919050565b600060208201905081810360008301526111c381610f17565b9050919050565b600060208201905081810360008301526111e381610f3a565b9050919050565b6000602082019050818103600083015261120381610f5d565b9050919050565b6000602082019050818103600083015261122381610f80565b9050919050565b600060c08201905061123f6000830184610fa3565b92915050565b600060208201905061125a600083018461102d565b92915050565b600082825260208201905092915050565b600061127c826113c4565b9150611287836113c4565b9250827fffffffffffffffffffffffffffffffffffffffffffffffffffffffffffffffff038211156112bc576112bb6113ce565b5b828201905092915050565b60006112d2826113c4565b91506112dd836113c4565b9250826112ed576112ec6113fd565b5b828204905092915050565b6000611303826113c4565b915061130e836113c4565b9250817fffffffffffffffffffffffffffffffffffffffffffffffffffffffffffffffff0483118215151615611347576113466113ce565b5b828202905092915050565b600061135d826113c4565b9150611368836113c4565b92508282101561137b5761137a6113ce565b5b828203905092915050565b6000611391826113a4565b9050919050565b60008115159050919050565b600073ffffffffffffffffffffffffffffffffffffffff82169050919050565b6000819050919050565b7f4e487b7100000000000000000000000000000000000000000000000000000000600052601160045260246000fd5b7f4e487b7100000000000000000000000000000000000000000000000000000000600052601260045260246000fd5b7f496e76616c6964207374616b65207061737365642e0000000000000000000000600082015250565b7f416d6f756e742065786365656473207265776172642e00000000000000000000600082015250565b7f4e6f742061207374616b65722e00000000000000000000000000000000000000600082015250565b7f4e6f20426f726564417065204e46540000000000000000000000000000000000600082015250565b7f496e73756666696369656e742066756e64730000000000000000000000000000600082015250565b7f4e6f7420757020746f2076616c696420646174652e0000000000000000000000600082015250565b61152b81611386565b811461153657600080fd5b50565b61154281611398565b811461154d57600080fd5b50565b611559816113c4565b811461156457600080fd5b5056fea264697066735822122051ae797a8e46dd9a065dd4141f217eba7f0c18ce698fc06e2c3a3480d1c0aeaa64736f6c63430008040033",
  "linkReferences": {},
  "deployedLinkReferences": {}
}